:1000000023C032C031C030C02FC097C12DC02CC01A
:100010002BC02AC029C028C027C072C1BCC00000A4
:100020000000370000000000380002020202020255
:10003000020202020102040810202004100801023A
:10004000000004000000000011241FBECFE5D2E034
:10005000DEBFCDBF20E0A0E6B0E001C01D92AA390E
:10006000B207E1F7B4D17AC2CBCFE2E4F0E0249159
:10007000E8E3F0E09491EEE2F0E0E491EE2349F160
:10008000222399F0223071F028F4213071F42AB53E
:100090002F770AC0233011F0243039F42CB52F7D8E
:1000A0002CBD03C02AB52F7D2ABDF0E0EE0FFF1F47
:1000B000EC5DFF4FA591B4912FB7F894811105C065
:1000C0008C91E92FE095E82302C0EC91E92BEC93A9
:1000D0002FBF0895E0919500F0919600309731F090
:1000E000759B04C0809194008111099408953FB7D5
:1000F000F89480916B0090916C00A0916D00B0918C
:100100006E0022B708B601FE05C02F3F19F0019618
:10011000A11DB11D3FBFBA2FA92F982F8827820F8D
:10012000911DA11DB11DBC01CD0143E0660F771FDC
:10013000881F991F4A95D1F70895882399F09091C7
:1001400094009923E1F390916100909161009F5F89
:100150009F709093610090919400915090939400BF
:100160008150EBCF08958091620090919100903181
:10017000E1F3E0916000F0E0E058FF4F8083809170
:1001800060008F5F8F7080936000809191008F5F1F
:100190008093910008951F920F920FB60F92112431
:1001A0002F933F934F935F936F937F938F939F937F
:1001B000AF93BF93EF93FF93809198009091990034
:1001C0008230910509F459C028F4009761F0019735
:1001D00079F185C08430910509F458C030F1059754
:1001E00009F45DC07CC08FB1882331F08FB1869552
:1001F0009091970089133EC0789B67C0E09195006D
:10020000F0919600309739F080919400882319F08E
:10021000809194000995E0919200F09193003097BD
:1002200009F0099581E090E052C08FB1811122C0A0
:10023000809191008823D1F0E0919000F0E0E058A7
:10024000FF4F80818FB9809190008F5F8F70809376
:1002500090008091910081508093910082E090E025
:100260009093990080939800B89A17C0B8981FB8D7
:100270008EE78EB988EA8DB910C083E090E0909344
:10028000990080939800B8981FB827C085E090E047
:100290009093990080939800B89880E71FC0809150
:1002A0009400803190F4E0917F008FB1F0E0E1594B
:1002B000FF4F808380917F008F5F8F7080937F00DE
:1002C000809194008F5F8093940084E090E09093FD
:1002D0009900809398001FB8B89A8EE78EB9FF9165
:1002E000EF91BF91AF919F918F917F916F915F91AE
:1002F0004F913F912F910F900FBE0F901F90189527
:100300001F920F920FB60F9211248F9310929900A3
:1003100010929800B898B29B02C0B09BFCCFB099E5
:1003200002C088EF01C088EA8DB980EF8EB98F9145
:100330000F900FBE0F901F9018951F920F920FB63F
:100340000F9211242F933F938F939F93AF93BF935B
:100350008091670090916800A0916900B0916A0057
:100360003091660026E0230F2D3720F40296A11D60
:10037000B11D05C029E8230F0396A11DB11D2093CF
:1003800066008093670090936800A0936900B09323
:100390006A0080916B0090916C00A0916D00B0910B
:1003A0006E000196A11DB11D80936B0090936C00AF
:1003B000A0936D00B0936E00BF91AF919F918F910C
:1003C0003F912F910F900FBE0F901F90189578942A
:1003D0008AB582608ABD8AB581608ABD83B7826032
:1003E00083BF83B7816083BF89B7826089BF80B7CD
:1003F000826080BF80B7816080BF329A319A309826
:10040000379A8CB580648CBDE8E3F0E02491EEE28D
:10041000F0E08491882399F090E0880F991FFC0107
:10042000E25EFF4FA591B491FC01EC5DFF4F859119
:1004300094918FB7F894EC91E22BEC938FBF80E00E
:1004400014DE109265001092610010927F001092ED
:10045000940010929000109260001092910086E635
:100460008093970087B3856087BBC29AC09AB8987B
:1004700088EA8DB980EF8EB983EB90E0909393007A
:10048000809392008DE990E0909396008093950080
:1004900083E087B9369A93E0D92EC3E8DAE100E029
:1004A00010E0CC24C39416DE36993EC064B185B109
:1004B00070E0782B70936400609363006135710580
:1004C00030F063507109CE0135D0645001C06FEF38
:1004D000609362000CDE7B0184E6882E912CA12CB7
:1004E000B12CF8DD04DE6E197F09683E734048F0D8
:1004F00081E0881A9108A108B10888E1E81A8CEF18
:10050000F80A81149104A104B10459F7D7B8369AB6
:1005100080916500882321F01092650080E003C07F
:10052000C092650081E0A1DD0115110509F4BBCF82
:1005300067DDB9CFAA1BBB1B51E107C0AA1FBB1FB8
:10054000A617B70710F0A61BB70B881F991F5A955F
:10055000A9F780959095BC01CD010895F894FFCF3F
:00000001FF
